{
  "contractName": "Reputation",
  "abi": [
    {
      "anonymous": false,
      "inputs": [
        {
          "indexed": false,
          "internalType": "uint256",
          "name": "id",
          "type": "uint256"
        },
        {
          "indexed": false,
          "internalType": "string",
          "name": "name",
          "type": "string"
        },
        {
          "indexed": false,
          "internalType": "int256",
          "name": "value",
          "type": "int256"
        },
        {
          "indexed": false,
          "internalType": "bool",
          "name": "valid",
          "type": "bool"
        }
      ],
      "name": "NodeRegistered",
      "type": "event"
    },
    {
      "anonymous": false,
      "inputs": [
        {
          "indexed": false,
          "internalType": "uint256",
          "name": "id",
          "type": "uint256"
        },
        {
          "indexed": false,
          "internalType": "string",
          "name": "name",
          "type": "string"
        }
      ],
      "name": "NodeUnregistered",
      "type": "event"
    },
    {
      "anonymous": false,
      "inputs": [
        {
          "components": [
            {
              "internalType": "uint256",
              "name": "id",
              "type": "uint256"
            },
            {
              "internalType": "int256",
              "name": "value",
              "type": "int256"
            }
          ],
          "indexed": false,
          "internalType": "struct Reputation.Response[]",
          "name": "rsp",
          "type": "tuple[]"
        }
      ],
      "name": "ReputationUpdate",
      "type": "event"
    },
    {
      "anonymous": false,
      "inputs": [
        {
          "components": [
            {
              "internalType": "uint256",
              "name": "id",
              "type": "uint256"
            },
            {
              "internalType": "int256",
              "name": "value",
              "type": "int256"
            }
          ],
          "indexed": false,
          "internalType": "struct Reputation.Response[]",
          "name": "rsp",
          "type": "tuple[]"
        }
      ],
      "name": "ResetReputation",
      "type": "event"
    },
    {
      "inputs": [],
      "name": "BASE",
      "outputs": [
        {
          "internalType": "int256",
          "name": "",
          "type": "int256"
        }
      ],
      "stateMutability": "view",
      "type": "function"
    },
    {
      "inputs": [],
      "name": "WEIGHT",
      "outputs": [
        {
          "internalType": "int256",
          "name": "",
          "type": "int256"
        }
      ],
      "stateMutability": "view",
      "type": "function"
    },
    {
      "inputs": [
        {
          "internalType": "string",
          "name": "_name",
          "type": "string"
        }
      ],
      "name": "registerNode",
      "outputs": [],
      "stateMutability": "nonpayable",
      "type": "function"
    },
    {
      "inputs": [
        {
          "internalType": "uint256",
          "name": "_id",
          "type": "uint256"
        }
      ],
      "name": "unregisterNode",
      "outputs": [],
      "stateMutability": "nonpayable",
      "type": "function"
    },
    {
      "inputs": [],
      "name": "getNodeCount",
      "outputs": [
        {
          "internalType": "uint256",
          "name": "",
          "type": "uint256"
        }
      ],
      "stateMutability": "view",
      "type": "function"
    },
    {
      "inputs": [
        {
          "internalType": "uint256",
          "name": "_id",
          "type": "uint256"
        }
      ],
      "name": "getNode",
      "outputs": [
        {
          "internalType": "string",
          "name": "",
          "type": "string"
        },
        {
          "internalType": "int256",
          "name": "",
          "type": "int256"
        },
        {
          "internalType": "bool",
          "name": "",
          "type": "bool"
        }
      ],
      "stateMutability": "view",
      "type": "function"
    },
    {
      "inputs": [
        {
          "components": [
            {
              "internalType": "uint256",
              "name": "id",
              "type": "uint256"
            },
            {
              "internalType": "int256",
              "name": "value",
              "type": "int256"
            }
          ],
          "internalType": "struct Reputation.Incentive[]",
          "name": "_incentives",
          "type": "tuple[]"
        }
      ],
      "name": "updateNodeReputation",
      "outputs": [],
      "stateMutability": "nonpayable",
      "type": "function"
    },
    {
      "inputs": [
        {
          "internalType": "uint256",
          "name": "_id",
          "type": "uint256"
        }
      ],
      "name": "getReputationScore",
      "outputs": [
        {
          "internalType": "int256",
          "name": "",
          "type": "int256"
        },
        {
          "internalType": "bool",
          "name": "",
          "type": "bool"
        }
      ],
      "stateMutability": "view",
      "type": "function"
    },
    {
      "inputs": [
        {
          "internalType": "uint256[]",
          "name": "_id",
          "type": "uint256[]"
        }
      ],
      "name": "resetReputations",
      "outputs": [],
      "stateMutability": "nonpayable",
      "type": "function"
    }
  ],
  "bytecode": "0x60806040526000600155600060025534801561001a57600080fd5b50611c628061002a6000396000f3fe608060405234801561001057600080fd5b50600436106100935760003560e01c80634f0f4aa9116100665780634f0f4aa91461010c57806388fc08251461013e578063bd5bcb0a1461015a578063c51966031461018b578063ec342ad0146101a757610093565b806327bc2ca91461009857806327c6f43e146100b457806339bf397e146100d05780634040ee24146100ee575b600080fd5b6100b260048036038101906100ad9190610fac565b6101c5565b005b6100ce60048036038101906100c991906110aa565b61036f565b005b6100d86104f0565b6040516100e59190611102565b60405180910390f35b6100f66104fa565b6040516101039190611136565b60405180910390f35b61012660048036038101906101219190611151565b610500565b60405161013593929190611221565b60405180910390f35b61015860048036038101906101539190611151565b61064e565b005b610174600480360381019061016f9190611151565b610822565b60405161018292919061125f565b60405180910390f35b6101a560048036038101906101a091906113cc565b6108c9565b005b6101af610d06565b6040516101bc9190611136565b60405180910390f35b6000815111610209576040517f08c379a000000000000000000000000000000000000000000000000000000000815260040161020090611461565b60405180910390fd5b6000815167ffffffffffffffff81111561022657610225610e33565b5b60405190808252806020026020018201604052801561025f57816020015b61024c610d0c565b8152602001906001900390816102445790505b50905060005b8251811015610333576101f460008085848151811061028757610286611481565b5b602002602001015181526020019081526020016000206001018190555060405180604001604052808483815181106102c2576102c1611481565b5b602002602001015181526020016000808685815181106102e5576102e4611481565b5b602002602001015181526020019081526020016000206001015481525082828151811061031557610314611481565b5b6020026020010181905250808061032b906114df565b915050610265565b507f471d5d46e98354d00bc4fcb09dbb02a1fef4650756e16642fbb84d8f4f962376816040516103639190611623565b60405180910390a15050565b60008151116103b3576040517f08c379a00000000000000000000000000000000000000000000000000000000081526004016103aa90611691565b60405180910390fd5b600160008154809291906103c6906114df565b9190505550600260008154809291906103de906114df565b9190505550806000806001548152602001908152602001600020600001908051906020019061040e929190610d26565b506101f46000806001548152602001908152602001600020600101819055506001600080600154815260200190815260200160002060020160006101000a81548160ff0219169083151502179055507fe7732333924a1dfed1a6aa40306ca8f0fb124bd902f266fbec7048950aa06cdf6001546000806001548152602001908152602001600020600001600080600154815260200190815260200160002060010154600080600154815260200190815260200160002060020160009054906101000a900460ff166040516104e594939291906117a6565b60405180910390a150565b6000600254905090565b61012c81565b606060008060008085815260200190815260200160002060020160009054906101000a900460ff16610567576040517f08c379a000000000000000000000000000000000000000000000000000000000815260040161055e9061183e565b60405180910390fd5b6000808581526020019081526020016000206000016000808681526020019081526020016000206001015460008087815260200190815260200160002060020160009054906101000a900460ff168280546105c1906116e0565b80601f01602080910402602001604051908101604052809291908181526020018280546105ed906116e0565b801561063a5780601f1061060f5761010080835404028352916020019161063a565b820191906000526020600020905b81548152906001019060200180831161061d57829003601f168201915b505050505092509250925092509193909250565b60008082815260200190815260200160002060020160009054906101000a900460ff166106b0576040517f08c379a00000000000000000000000000000000000000000000000000000000081526004016106a79061183e565b60405180910390fd5b60008060008381526020019081526020016000206040518060600160405290816000820180546106df906116e0565b80601f016020809104026020016040519081016040528092919081815260200182805461070b906116e0565b80156107585780601f1061072d57610100808354040283529160200191610758565b820191906000526020600020905b81548152906001019060200180831161073b57829003601f168201915b50505050508152602001600182015481526020016002820160009054906101000a900460ff1615151515815250509050600080838152602001908152602001600020600080820160006107ab9190610dac565b60018201600090556002820160006101000a81549060ff02191690555050600260008154809291906107dc9061185e565b91905055507f05ac75806c8d81ef1ffd543eb40c4fa91e66fc309e557365d9dfe59f12864897828260000151604051610816929190611887565b60405180910390a15050565b60008060008084815260200190815260200160002060020160009054906101000a900460ff16610887576040517f08c379a000000000000000000000000000000000000000000000000000000000815260040161087e9061183e565b60405180910390fd5b6000808481526020019081526020016000206001015460008085815260200190815260200160002060020160009054906101000a900460ff1691509150915091565b600081511161090d576040517f08c379a000000000000000000000000000000000000000000000000000000000815260040161090490611903565b60405180910390fd5b6000815167ffffffffffffffff81111561092a57610929610e33565b5b6040519080825280602002602001820160405280156109585781602001602082028036833780820191505090505b5090506000805b8351811015610bd55783818151811061097b5761097a611481565b5b60200260200101516020015161012c6109949190611923565b61012c6103e86109a49190611a3a565b6000808785815181106109ba576109b9611481565b5b6020026020010151600001518152602001908152602001600020600101546109e29190611923565b6109ec9190611ace565b600080868481518110610a0257610a01611481565b5b60200260200101516000015181526020019081526020016000206001018190555060006103e8600080878581518110610a3e57610a3d611481565b5b602002602001015160000151815260200190815260200160002060010154610a669190611b91565b905080600080878581518110610a7f57610a7e611481565b5b60200260200101516000015181526020019081526020016000206001016000828254610aab9190611a3a565b925050819055506103e8600080878581518110610acb57610aca611481565b5b60200260200101516000015181526020019081526020016000206001016000828254610af79190611bc2565b925050819055506000805b84811015610b6557868481518110610b1d57610b1c611481565b5b602002602001015160000151868281518110610b3c57610b3b611481565b5b602002602001015103610b525760019150610b65565b8080610b5d906114df565b915050610b02565b508015610b73575050610bc2565b858381518110610b8657610b85611481565b5b602002602001015160000151858581518110610ba557610ba4611481565b5b6020026020010181815250508380610bbc906114df565b94505050505b8080610bcd906114df565b91505061095f565b5060008167ffffffffffffffff811115610bf257610bf1610e33565b5b604051908082528060200260200182016040528015610c2b57816020015b610c18610d0c565b815260200190600190039081610c105790505b50905060005b82811015610cc8576040518060400160405280858381518110610c5757610c56611481565b5b60200260200101518152602001600080878581518110610c7a57610c79611481565b5b6020026020010151815260200190815260200160002060010154815250828281518110610caa57610ca9611481565b5b60200260200101819052508080610cc0906114df565b915050610c31565b507f2c511dee9c67ef21cf87e4f8c5b5e95aafa0997e88c6a6806438ebd2f55016d681604051610cf89190611623565b60405180910390a150505050565b6103e881565b604051806040016040528060008152602001600081525090565b828054610d32906116e0565b90600052602060002090601f016020900481019282610d545760008555610d9b565b82601f10610d6d57805160ff1916838001178555610d9b565b82800160010185558215610d9b579182015b82811115610d9a578251825591602001919060010190610d7f565b5b509050610da89190610dec565b5090565b508054610db8906116e0565b6000825580601f10610dca5750610de9565b601f016020900490600052602060002090810190610de89190610dec565b5b50565b5b80821115610e05576000816000905550600101610ded565b5090565b6000604051905090565b600080fd5b600080fd5b600080fd5b6000601f19601f8301169050919050565b7f4e487b7100000000000000000000000000000000000000000000000000000000600052604160045260246000fd5b610e6b82610e22565b810181811067ffffffffffffffff82111715610e8a57610e89610e33565b5b80604052505050565b6000610e9d610e09565b9050610ea98282610e62565b919050565b600067ffffffffffffffff821115610ec957610ec8610e33565b5b602082029050602081019050919050565b600080fd5b6000819050919050565b610ef281610edf565b8114610efd57600080fd5b50565b600081359050610f0f81610ee9565b92915050565b6000610f28610f2384610eae565b610e93565b90508083825260208201905060208402830185811115610f4b57610f4a610eda565b5b835b81811015610f745780610f608882610f00565b845260208401935050602081019050610f4d565b5050509392505050565b600082601f830112610f9357610f92610e1d565b5b8135610fa3848260208601610f15565b91505092915050565b600060208284031215610fc257610fc1610e13565b5b600082013567ffffffffffffffff811115610fe057610fdf610e18565b5b610fec84828501610f7e565b91505092915050565b600080fd5b600067ffffffffffffffff82111561101557611014610e33565b5b61101e82610e22565b9050602081019050919050565b82818337600083830152505050565b600061104d61104884610ffa565b610e93565b90508281526020810184848401111561106957611068610ff5565b5b61107484828561102b565b509392505050565b600082601f83011261109157611090610e1d565b5b81356110a184826020860161103a565b91505092915050565b6000602082840312156110c0576110bf610e13565b5b600082013567ffffffffffffffff8111156110de576110dd610e18565b5b6110ea8482850161107c565b91505092915050565b6110fc81610edf565b82525050565b600060208201905061111760008301846110f3565b92915050565b6000819050919050565b6111308161111d565b82525050565b600060208201905061114b6000830184611127565b92915050565b60006020828403121561116757611166610e13565b5b600061117584828501610f00565b91505092915050565b600081519050919050565b600082825260208201905092915050565b60005b838110156111b857808201518184015260208101905061119d565b838111156111c7576000848401525b50505050565b60006111d88261117e565b6111e28185611189565b93506111f281856020860161119a565b6111fb81610e22565b840191505092915050565b60008115159050919050565b61121b81611206565b82525050565b6000606082019050818103600083015261123b81866111cd565b905061124a6020830185611127565b6112576040830184611212565b949350505050565b60006040820190506112746000830185611127565b6112816020830184611212565b9392505050565b600067ffffffffffffffff8211156112a3576112a2610e33565b5b602082029050602081019050919050565b600080fd5b6112c28161111d565b81146112cd57600080fd5b50565b6000813590506112df816112b9565b92915050565b6000604082840312156112fb576112fa6112b4565b5b6113056040610e93565b9050600061131584828501610f00565b6000830152506020611329848285016112d0565b60208301525092915050565b600061134861134384611288565b610e93565b9050808382526020820190506040840283018581111561136b5761136a610eda565b5b835b81811015611394578061138088826112e5565b84526020840193505060408101905061136d565b5050509392505050565b600082601f8301126113b3576113b2610e1d565b5b81356113c3848260208601611335565b91505092915050565b6000602082840312156113e2576113e1610e13565b5b600082013567ffffffffffffffff811115611400576113ff610e18565b5b61140c8482850161139e565b91505092915050565b7f4f66666c6f6164696e672073697465204944732061726520656d707479210000600082015250565b600061144b601e83611189565b915061145682611415565b602082019050919050565b6000602082019050818103600083015261147a8161143e565b9050919050565b7f4e487b7100000000000000000000000000000000000000000000000000000000600052603260045260246000fd5b7f4e487b7100000000000000000000000000000000000000000000000000000000600052601160045260246000fd5b60006114ea82610edf565b91507fffffffffffffffffffffffffffffffffffffffffffffffffffffffffffffffff820361151c5761151b6114b0565b5b600182019050919050565b600081519050919050565b600082825260208201905092915050565b6000819050602082019050919050565b61155c81610edf565b82525050565b61156b8161111d565b82525050565b6040820160008201516115876000850182611553565b50602082015161159a6020850182611562565b50505050565b60006115ac8383611571565b60408301905092915050565b6000602082019050919050565b60006115d082611527565b6115da8185611532565b93506115e583611543565b8060005b838110156116165781516115fd88826115a0565b9750611608836115b8565b9250506001810190506115e9565b5085935050505092915050565b6000602082019050818103600083015261163d81846115c5565b905092915050565b7f4e6f646520706172616d6574657220697320656d707479206f72206e756c6c21600082015250565b600061167b602083611189565b915061168682611645565b602082019050919050565b600060208201905081810360008301526116aa8161166e565b9050919050565b7f4e487b7100000000000000000000000000000000000000000000000000000000600052602260045260246000fd5b600060028204905060018216806116f857607f821691505b60208210810361170b5761170a6116b1565b5b50919050565b60008190508160005260206000209050919050565b60008154611733816116e0565b61173d8186611189565b94506001821660008114611758576001811461176a5761179d565b60ff198316865260208601935061179d565b61177385611711565b60005b8381101561179557815481890152600182019150602081019050611776565b808801955050505b50505092915050565b60006080820190506117bb60008301876110f3565b81810360208301526117cd8186611726565b90506117dc6040830185611127565b6117e96060830184611212565b95945050505050565b7f4e6f6465206973206e6f74207265676973746572656421000000000000000000600082015250565b6000611828601783611189565b9150611833826117f2565b602082019050919050565b600060208201905081810360008301526118578161181b565b9050919050565b600061186982610edf565b91506000820361187c5761187b6114b0565b5b600182039050919050565b600060408201905061189c60008301856110f3565b81810360208301526118ae81846111cd565b90509392505050565b7f496e63656e74697665732061726520656d707479210000000000000000000000600082015250565b60006118ed601583611189565b91506118f8826118b7565b602082019050919050565b6000602082019050818103600083015261191c816118e0565b9050919050565b600061192e8261111d565b91506119398361111d565b9250827f7fffffffffffffffffffffffffffffffffffffffffffffffffffffffffffffff0482116000841360008413161615611978576119776114b0565b5b817f800000000000000000000000000000000000000000000000000000000000000005831260008412600084131616156119b5576119b46114b0565b5b827f800000000000000000000000000000000000000000000000000000000000000005821260008413600084121616156119f2576119f16114b0565b5b827f7fffffffffffffffffffffffffffffffffffffffffffffffffffffffffffffff0582126000841260008412161615611a2f57611a2e6114b0565b5b828202905092915050565b6000611a458261111d565b9150611a508361111d565b9250827f800000000000000000000000000000000000000000000000000000000000000001821260008412151615611a8b57611a8a6114b0565b5b827f7fffffffffffffffffffffffffffffffffffffffffffffffffffffffffffffff018213600084121615611ac357611ac26114b0565b5b828203905092915050565b6000611ad98261111d565b9150611ae48361111d565b9250817f7fffffffffffffffffffffffffffffffffffffffffffffffffffffffffffffff03831360008312151615611b1f57611b1e6114b0565b5b817f8000000000000000000000000000000000000000000000000000000000000000038312600083121615611b5757611b566114b0565b5b828201905092915050565b7f4e487b7100000000000000000000000000000000000000000000000000000000600052601260045260246000fd5b6000611b9c8261111d565b9150611ba78361111d565b925082611bb757611bb6611b62565b5b828207905092915050565b6000611bcd8261111d565b9150611bd88361111d565b925082611be857611be7611b62565b5b600160000383147f800000000000000000000000000000000000000000000000000000000000000083141615611c2157611c206114b0565b5b82820590509291505056fea26469706673582212204df561e59d84ca8617d3870bcdbb8578d8d2a9d7ca96fb1776c42bd989ba34df64736f6c634300080e0033",
  "immutableReferences": {},
  "source": "pragma solidity ^0.8.0;\n\ncontract Reputation {\n\n\tstruct Score {\n\n\t\tstring name;\n\t\tint value;\n\t\tbool valid;\n\n\t}\n\n\tstruct Incentive {\n\n\t\tuint id;\n\t\tint value;\n\n\t}\n\n\tstruct Response {\n\n\t\tuint id;\n\t\tint value;\n\n\t}\n\n\tint constant public BASE = 1000;\n\tint constant public WEIGHT = 300;\n\n\tmapping (uint => Score) private reputationSystem;\n\tuint private nodeId = 0;\n\tuint private nodeCount = 0;\n\n\tevent NodeRegistered (uint id, string name, int value, bool valid);\n\tevent NodeUnregistered (uint id, string name);\n\t// event ReputationUpdate (uint id, int value, bool valid);\n\tevent ReputationUpdate (Response[] rsp);\n\tevent ResetReputation (Response[] rsp);\n\n\n\tfunction registerNode (string memory _name) public {\n\n\t\trequire (bytes (_name).length > 0, \"Node parameter is empty or null!\");\n\t\t\n\t\tnodeId++;\n\t\tnodeCount++;\n\t\treputationSystem[nodeId].name = _name;\n\t\treputationSystem[nodeId].value = 500;\n\t\treputationSystem[nodeId].valid = true;\n\n\t\temit NodeRegistered (nodeId, reputationSystem[nodeId].name, reputationSystem[nodeId].value,\n\t\t\treputationSystem[nodeId].valid);\n\n\t}\n\n\tfunction unregisterNode (uint _id) public {\n\n\t\trequire (reputationSystem[_id].valid, \"Node is not registered!\");\n\n\t\tScore memory tmp = reputationSystem[_id];\n\t\tdelete reputationSystem[_id];\n\t\tnodeCount--;\n\n\t\temit NodeUnregistered(_id, tmp.name);\n\n\t}\n\n\tfunction getNodeCount () public view returns (uint) {\n\n\t\treturn nodeCount;\n\n\t}\n\n\tfunction getNode (uint _id) public view returns (string memory, int, bool) {\n\n\t\trequire (reputationSystem[_id].valid, \"Node is not registered!\");\n\n\t\treturn (reputationSystem[_id].name, reputationSystem[_id].value,\n\t\t\treputationSystem[_id].valid);\n\n\t}\n\n\tfunction updateNodeReputation (Incentive[] memory _incentives) public {\n\n\t\trequire (_incentives.length > 0, \"Incentives are empty!\");\n\n\t\tuint[] memory reportedIds = new uint[] (_incentives.length);\n\t\tuint index = 0;\n\n\t\tfor (uint i = 0; i < _incentives.length; i++) {\n\n\t\t\treputationSystem[_incentives[i].id].value = \n\t\t\t\treputationSystem[_incentives[i].id].value * (BASE - WEIGHT) + WEIGHT * _incentives[i].value;\n\t\t\tint residual = reputationSystem[_incentives[i].id].value % BASE;\n\t\t\treputationSystem[_incentives[i].id].value -= residual;\n\t\t\treputationSystem[_incentives[i].id].value /= BASE;\n\n\t\t\tbool found = false;\n\n\t\t\tfor (uint j = 0; j < index; j++) {\n\n\t\t\t\tif (reportedIds[j] == _incentives[i].id) { \n\n\t\t\t\t\tfound = true;\n\t\t\t\t\tbreak;\n\n\t\t\t\t}\n\n\t\t\t}\n\n\t\t\tif (found) continue;\n\n\t\t\treportedIds[index] = _incentives[i].id;\n\t\t\tindex++;\n\n\t\t}\n\n\t\tResponse[] memory response = new Response[] (index);\n\n\t\tfor (uint i = 0; i < index; i++) {\n\n\t\t\tresponse[i] = Response (reportedIds[i], reputationSystem[reportedIds[i]].value);\n\t\t\t\n\t\t} \n\n\t\t// emit ReputationUpdate (_id, reputationSystem[_id].value, reputationSystem[_id].valid);\n\t\temit ReputationUpdate (response);\n\n\t}\n\n\tfunction getReputationScore (uint _id) public view returns (int, bool) {\n\n\t\trequire (reputationSystem[_id].valid, \"Node is not registered!\");\n\n\t\treturn (reputationSystem[_id].value, reputationSystem[_id].valid);\n\n\t}\n\n\tfunction resetReputations (uint[] memory _id) public {\n\n\t\trequire (_id.length > 0, \"Offloading site IDs are empty!\");\n\n\t\tResponse[] memory response = new Response[] (_id.length);\n\n\t\tfor (uint i = 0; i < _id.length; i++) {\n\n\t\t\treputationSystem[_id[i]].value = 500;\n\t\t\tresponse[i] = Response (_id[i], reputationSystem[_id[i]].value);\n\n\t\t}\n\n\t\temit ResetReputation (response);\n\n\t} \n\n}",
  "sourcePath": "/home/jzilic/hybrid-edge-blockchain/contracts/Reputation.sol",
  "compiler": {
    "name": "solc",
    "version": "0.8.14+commit.80d49f37.Emscripten.clang"
  },
  "schemaVersion": "3.4.16",
  "updatedAt": "2024-01-24T09:48:23.278Z",
  "devdoc": {
    "kind": "dev",
    "methods": {},
    "version": 1
  },
  "userdoc": {
    "kind": "user",
    "methods": {},
    "version": 1
  }
}